{
  "_format": "hh-sol-artifact-1",
  "contractName": "ContractA",
  "sourceName": "contracts/ContractA.sol",
  "abi": [
    {
      "inputs": [],
      "name": "main",
      "outputs": [
        {
          "internalType": "string",
          "name": "",
          "type": "string"
        }
      ],
      "stateMutability": "pure",
      "type": "function"
    }
  ],
  "bytecode": "0x608060405234801561001057600080fd5b50610173806100206000396000f3fe608060405234801561001057600080fd5b506004361061002b5760003560e01c8063dffeadd014610030575b600080fd5b61003861004e565b604051610045919061011b565b60405180910390f35b60606040518060400160405280600781526020017f576f726b696e6700000000000000000000000000000000000000000000000000815250905090565b600081519050919050565b600082825260208201905092915050565b60005b838110156100c55780820151818401526020810190506100aa565b60008484015250505050565b6000601f19601f8301169050919050565b60006100ed8261008b565b6100f78185610096565b93506101078185602086016100a7565b610110816100d1565b840191505092915050565b6000602082019050818103600083015261013581846100e2565b90509291505056fea2646970667358221220eda54dc8770922ad830a44a2620c00e13ad8f2922ab759091e38062e8e1686de64736f6c63430008130033",
  "linkReferences": {},
  "deployedLinkReferences": {}
}